:101000000000042079130000611300006313000046
:101010006513000067130000691300000000000062
:101020000000000000000000000000006B13000042
:101030006D130000000000006F130000711300002A
:101040007313000073130000731300007313000088
:101050007313000073130000731300007313000078
:101060007313000073130000731300007313000068
:101070007313000073130000731300007313000058
:101080007313000073130000731300007313000048
:101090007313000073130000731300007313000038
:1010A0007313000073130000731300007313000028
:1010B0007313000073130000000000000000000024
:1010C0007313000073130000731300007313000008
:1010D00073130000731300007313000073130000F8
:1010E000731300007313000073130000000000006E
:1010F00000000000731300000000000073130000E4
:1011000000000000000000000000000000000000DF
:1011100000000000000000000000000000000000CF
:1011200000000000000000000000000000000000BF
:1011300000000000000000000000000000000000AF
:10114000000000000000000000000000000000009F
:10115000000000000000000000000000000000008F
:10116000000000000000000000000000000000007F
:10117000000000000000000000000000000000006F
:10118000000000000000000000000000000000005F
:10119000000000000000000000000000000000004F
:1011A000000000000000000000000000000000003F
:1011B000000000000000000000000000000000002F
:1011C000000000000000000000000000000000001F
:1011D000000000000000000000000000000000000F
:1011E00000000000000000000000000000000000FF
:1011F00000000000000000000000000000000000EF
:10120000364937480A1A02D0072291438D4635499C
:1012100035480A1A06D00722914381F30988022231
:1012200082F3148831483249324A00F045F8324896
:101230003249334A00F040F832483349334A00F02B
:101240003BF833483349344A00F036F833483449E0
:10125000344A00F031F834483449354A00F02CF86B
:1012600034483549354A00F027F8354835490022D9
:1012700000F02DF834483549002200F028F83448B1
:101280003449091A082903DB002202600430016096
:10129000314A90471F482049884205D002680430EF
:1012A00003B4904703BCF7E700208646EC460020D5
:1012B00000212A4A9047FEE7884207D0521A05D0FB
:1012C000037801300B700131013AF9D1704788423F
:1012D00002D002700130FAE77047000000000420DD
:1012E00000E0032000000420000004203C17000060
:1012F000080000200C000020D8130000D8130000C4
:101300002E1700003C1700000800002008000020F5
:1013100030170000301700003017000030170000B1
:1013200030170000301700003017000030170000A1
:101330003A170000401700000C0000200C000020AD
:101340000C0000200C0000200C0000200C000020ED
:101350000C0000200C200020A1130000D913000075
:10136000FEE7FEE7FEE7FEE7FEE7FEE7FEE7FEE755
:10137000FEE7FEE7704700BF1048804710484FF077
:101380000701884385460F4880470F48016841F4AC
:1013900070010160BFF34F8FBFF36F8FFFF730BF56
:1013A0000A480B490B4A884207D0521A05D00378E5
:1013B00001300B700131013AF9D17047751300000B
:1013C000000004206D15000088ED00E030170000DB
:0813D0000800002008000020C5
:1013D80070B501200B4E00F05FF846F001060025BD
:1013E800284600F035F84FF4FA744FF47A40B047C5
:1013F800013CFAD10135042DF2D1204600F08EF9D6
:10140800EDE700BF30170000074B1B5C1F2B86BFA2
:1014180003F01F0305494FF0A041012202FA03F32C
:10142800C1F80835704700BF3617000000030050A8
:1014380008B50020FFF7E8FF0120FFF7E5FF0220CD
:10144800FFF7E2FF0320BDE80840FFF7DDBF00001B
:101458000A4B185C1F288ABF094B4FF0A04300F0C5
:101468001F00D3F804250121814021EA02000A4027
:10147800C3F80805C3F80C25704700BF36170000ED
:1014880000030050034BD3F810056FEA901000F0EA
:101498000100704700030050C10710B5044642D54B
:1014A8004FF08043D3F84036DA072ED54FF010239B
:1014B800D3F8043303F00703072B26D11D4B012271
:1014C800C3F80425D3F80024002AFBD04FF01021DC
:1014D800D1F8042322F0070242F00402C1F80423E1
:1014E8000022C3F80425134AD2F80034002BFBD09D
:1014F800BFF34F8F1049114BCA6802F4E0621343DF
:10150800CB60BFF34F8F00BFFDE74FF0A0420C49FF
:101518000323C2F81837C2F82037C1F82437C2F8B5
:101528003037FFF785FFA30742BF054B0C22C3F8EE
:10153800182710BD00E0014000ED00E00400FA05A6
:1015480000030050054B1B68082B01BF044B1868AB
:10155800B0FA80F0400918BF002070473001001031
:101568003401001008B54FF080430022C3F80C2165
:10157800C3F81021C3F838254FF0805203F54043D3
:10158800D2F80414C3F82015D2F80814C3F82415A7
:10159800D2F80C14C3F82815D2F81014C3F82C1577
:1015A800D2F81414C3F83015D2F81814C3F8341547
:1015B800D2F81C14C3F84015D2F82014C3F8441507
:1015C800D2F82414C3F84815D2F82814C3F84C15D7
:1015D800D2F82C14C3F85015D2F83014C3F85415A7
:1015E800D2F83414C3F86015D2F83814C3F8641567
:1015F800D2F83C14C3F86815D2F84014C3F86C1537
:10160800D2F84424C3F87025FFF79CFF10B1384B7B
:10161800384A1A60FFF796FF18B1374BFB22C3F818
:101628001825FFF78FFF48B13449354B0A681B6806
:1016380022F00F0203F00F0313430B60FFF782FF42
:1016480018B1304B4FF400721A604FF08043D3F852
:101658000024D20744BF6FF00102C3F800242A4ACD
:10166800D2F8883043F47003C2F88830BFF34F8F44
:10167800BFF36F8F4FF01023D3F80022002A03DB4B
:10168800D3F80432002B2FDA204B0122C3F80425AB
:10169800D3F80024002AFBD04FF010221221C2F800
:1016A8000012D3F80024002AFBD04FF01023122296
:1016B800C3F80422154B1A46D3F800140029FBD0AE
:1016C8000021C3F80415D2F80034002BFBD0BFF377
:1016D8004F8F0D490E4BCA6802F4E0621343CB608A
:1016E800BFF34F8F00BFFDE70A4B0B4A1A6008BDD6
:1016F8008C5600404881030000F00040E40E004092
:10170800580200104096024000ED00E000E0014061
:101718000400FA05080000200090D00308B9FFF77C
:06172800B1BE0020704775
:0A1730000338FDD870470608290CA5
:04173C000090D00346
:04000003000013796D
:00000001FF
